:1000DD001E0A003F0006005B004F0066006D007DAC
:1000ED000007007F006F00770039005E0079007116
:0400FD0002080001F4
:0B011100EF1FAC0670011E4C70F622C0
:10008F00EF600675080075090130B40930B106300C
:10009F00B20320B3247F647E00120111E4F508F54A
:1000AF000920B4037F012220B1037F022220B20373
:1000BF007F032220B3157F042230B40F30B10C30F0
:0D00CF00B20930B3067508007509017F0005
:0100DC002201
:0F010200E4F5A0E4FF12008FBF04F8B2A380F46D
:03000000020003F8
:0C000300787FE4F6D8FD75812702004AE2
:10000F00020102E493A3F8E493A34003F68001F204
:10001F0008DFF48029E493A3F85407240CC8C333F2
:10002F00C4540F4420C8834004F456800146F6DFC1
:10003F00E4800B01020408102040809000DDE47E74
:10004F00019360BCA3FF543F30E509541FFEE493B6
:10005F00A360010ECF54C025E060A840B8E493A37D
:10006F00FAE493A3F8E493A3C8C582C8CAC583CAA8
:10007F00F0A3C8C582C8CAC583CADFE9DEE780BE60
:0101010000FD
:00000001FF
