:100108001E08003F0006005B004F0066006D007D82
:100118000007007F006F00770039005E00790071EA
:0B012900EF1FAC0670011E4C70F622A8
:10008F00E4FBFAEA7053EBB40800504D9000A2F86D
:10009F002828730200BA0200BE0200C60200CA027C
:1000AF0000D20200D60200DE0200E2C2A28002D21B
:1000BF00A2C2A3C2A48022C2A28002D2A2D2A3C291
:1000CF00A48016C2A28002D2A2C2A3D2A4800AC266
:1000DF00A28002D2A2D2A3D2A4EB25E02408F80872
:1000EF00E6F5807FC87E00120129E4F5800BBB0086
:0800FF00010AEB64084A708B52
:0101070022D5
:0501340012008F80FBAA
:03000000020003F8
:0C000300787FE4F6D8FD75812502004AE4
:10000F00020134E493A3F8E493A34003F68001F2D2
:10001F0008DFF48029E493A3F85407240CC8C333F2
:10002F00C4540F4420C8834004F456800146F6DFC1
:10003F00E4800B0102040810204080900108E47E48
:10004F00019360BCA3FF543F30E509541FFEE493B6
:10005F00A360010ECF54C025E060A840B8E493A37D
:10006F00FAE493A3F8E493A3C8C582C8CAC583CAA8
:10007F00F0A3C8C582C8CAC583CADFE9DEE780BE60
:0101280000D6
:00000001FF
