:10008F001E08003F0006005B004F0066006D007DFC
:10009F000007007F006F00770039005E0079007164
:0B00C300EF1FAC0670011E4C70F6220F
:1000B000740225E02408F808E6F580D2A4D2A3C291
:0300C000A280FE1D
:03000000020003F8
:0C000300787FE4F6D8FD75812502004AE4
:10000F000200B0E493A3F8E493A34003F68001F257
:10001F0008DFF48029E493A3F85407240CC8C333F2
:10002F00C4540F4420C8834004F456800146F6DFC1
:10003F00E4800B010204081020408090008FE47EC2
:10004F00019360BCA3FF543F30E509541FFEE493B6
:10005F00A360010ECF54C025E060A840B8E493A37D
:10006F00FAE493A3F8E493A3C8C582C8CAC583CAA8
:10007F00F0A3C8C582C8CAC583CADFE9DEE780BE60
:0100AF000050
:00000001FF
