:0B00CE00EF1FAC0670011E4C70F62204
:10008E007B017A00EB24FFFFEA34FFFE7C007D0843
:10009E00120003AF057401A807088002C333D8FC11
:1000AE00F4F5A07F507EC31200CE0BBB00010AEB0D
:0300BE004A70D1B4
:0100C100221C
:030000000200C239
:0C00C200787FE4F6D8FD75810702008EFF
:10000300C2D5EC30E709B2D5E4C39DFDE49CFCEE18
:1000130030E715B2D5E4C39FFFE49EFE120039C357
:10002300E49DFDE49CFC800312003930D507C3E452
:060033009FFFE49EFE2287
:10003900BC000BBE0029EF8DF084FFADF022E4CCAB
:10004900F875F008EF2FFFEE33FEEC33FCEE9DEC74
:10005900984005FCEE9DFE0FD5F0E9E4CEFD22EDBA
:10006900F8F5F0EE8420D21CFEADF075F008EF2F04
:10007900FFED33FD4007985006D5F0F222C398FDF5
:050089000FD5F0EA2292
:00000001FF
